:100000000C942A000C9434000C9434000C943400AA
:100010000C9434000C9434000C9434000C94340090
:100020000C9434000C9434000C9434000C94340080
:100030000C9434000C9434000C9434000C94340070
:100040000C9434000C9434000C9434000C94340060
:100050000C94340011241FBECFE5D8E0DEBFCDBF25
:100060000E948D000C94C2000C940000B89AB99ABA
:10007000D09AD19A80E00E94640082E00C946400DF
:10008000D89AD998C09AC1980895D99AD898C19AFF
:10009000C098089560E00C947C0062E00C947C00B1
:1000A000CF93C82F80E00E944D008C2FCF910C94ED
:1000B0004A000E944D0080E00C944A0080E00E94BB
:1000C0004A0080E00C944D00882341F0823059F4BE
:1000D0008F9A15BC89E685BD14BC0895BB9A13BEE2
:1000E00089E683BF12BE0895662321F0623019F4B9
:1000F00083BD08958CBF0895262F3FEF839FC001D5
:10010000112464E670E00E949A00222321F022303C
:1001100019F463BD08956CBF08950E94360082E310
:100120000E944D008BE40E944A000E94400080E043
:1001300090E0089597FB072E16F4009407D077FD02
:1001400009D00E94AE0007FC05D03EF49095819541
:100150009F4F0895709561957F4F0895AA1BBB1B13
:1001600051E107C0AA1FBB1FA617B70710F0A61BB7
:10017000B70B881F991F5A95A9F780959095BC01D8
:08018000CD010895F894FFCFB2
:00000001FF
